:020000040800F2
:1000000000000220DD080008590800086108000807
:10001000690800087108000879080008000000005D
:10002000000000000000000000000000810800083F
:100030008F080008000000009D080008AB080008B9
:100040002D0900082D0900082D0900082D090008B8
:100050002D0900082D0900082D0900082D090008A8
:100060002D0900082D0900082D0900082D09000898
:100070002D0900082D0900082D0900082D09000888
:100080002D0900082D0900082D0900082D09000878
:100090002D0900082D0900082D0900082D09000868
:1000A0002D0900082D0900082D0900082D09000858
:1000B0002D0900082D0900082D0900082D09000848
:1000C0002D0900082D0900082D0900082D09000838
:1000D0002D0900082D0900082D0900082D09000828
:1000E0002D0900082D0900082D0900082D09000818
:1000F0002D0900082D0900082D0900082D09000808
:100100002D0900082D0900082D0900082D090008F7
:100110002D0900082D0900082D0900082D090008E7
:100120002D0900082D0900082D0900082D090008D7
:100130002D0900082D0900082D0900082D090008C7
:100140002D0900082D0900082D0900082D090008B7
:100150002D0900082D0900082D0900082D090008A7
:100160002D0900082D0900082D0900082D09000897
:100170002D0900082D0900082D0900082D09000887
:100180002D0900082D0900082D0900082D09000877
:100190002D090008000000002D0900082D090008A5
:1001A0002D0900082D0900082D0900082D09000857
:1001B0002D0900082D0900082D0900082D09000847
:1001C0002D0900082D0900082D0900082D09000837
:0801D0002D0900082D090008AB
:1001D80010B5054C237833B9044B13B10448AFF379
:1001E80000800123237010BD0C02002000000000D5
:1001F8009C37000808B5034B1BB103490348AFF30C
:10020800008008BD00000000100200209C37000894
:1002180080B58AB004AF00F086FB00F08DF800F0DE
:1002280083F900F0D3F800F011F900237B6107E0AF
:100238003B4A7B69002122F813107B6901337B61FB
:100248007B69FF2BF4D900224FF48061354800F018
:1002580063FE642000F0D8FB01224FF4806131482E
:1002680000F05AFE012000F0CFFB0323FB714FF092
:10027800FF33029301230193FB1D009301230722FF
:100288002021294800F0FCFE0346FB74FB7C002B70
:1002980004D0254B5B6CFB6000F0ACF90023FB71CC
:1002A8004FF0FF33029301230193FB1D00930123B9
:1002B800072220211C4800F0E3FE0346FB74FB7C68
:1002C800002B04D0184B5B6CBB6000F093F9174B04
:1002D8001B68174A32F81320164B1B68520891B254
:1002E8000F4A22F81310134B1B6801330C4A0021E4
:1002F80022F813100F4B1B6802330E4A13600B4B86
:100308001B680133094A13600A4B1B68DBB2094AB0
:100318001360064B1B68DBB2044A136000BFD6E7C4
:100328000C000020000800482802002018030020C4
:10033800B43700081403002080B594B000AF07F16B
:10034800180338220021184603F0F8F93B1D002253
:100358001A605A609A60DA601A614FF4007001F00E
:10036800A9FA0123BB614FF48033FB6102237B634D
:100378000323BB630123FB6318233B6402237B64D1
:100388000823BB640423FB6407F11803184601F033
:1003980045FB0346002B01D000F044F90F237B6096
:1003A8000223BB600023FB6000233B6100237B61C9
:1003B8003B1D0021184601F043FE0346002B01D0E7
:1003C80000F030F900BF5037BD4680BD80B500AFA2
:1003D8001B4B1C4A1A601A4B1B4A5A60184B0022C6
:1003E8009A60174B0122DA60154B00221A61144BF0
:1003F80000225A61124B00229A61114B0022DA61E5
:100408000F4B00221A620E4800F09EFD0346002B97
:1004180001D000F007F90021094801F0B3F90346BB
:10042800002B01D000F0FEF80021054801F0F5F995
:100438000346002B01D000F0F5F800BF80BD00BFD7
:1004480028020020005400400C09202080B500AF8D
:10045800334B344A1A60324B00225A64304B002224
:100468005A602F4BC0229A642D4B0022DA642C4B21
:1004780001221A652A4B00229A60294B4FF4005238
:100488005A61274B00229A61254B00229A62244B1D
:100498000122DA61224B4BF680321A62204B4FF070
:1004A80000621A611E4B0022DA601D4B0022DA62DC
:1004B8001B4B00221A631A4B00225A63184B002266
:1004C80083F83820164B0022DA63154B4FF48072FC
:1004D8001A64134B40225A65114B01229A65104B3E
:1004E8000022DA650E4B00221A660D4B4FF480226B
:1004F8005A660B4B00229A66094B0022DA66084BB3
:1005080002221A67064B03225A67054802F040FF89
:100518000346002B01D000F085F800BF80BD00BF66
:100528007C0200200454014080B58AB000AF07F176
:10053800140300221A605A609A60DA601A612B4B21
:10054800DB6C2A4A43F02003D364284BDB6C03F0AE
:1005580020033B613B69254BDB6C244A43F00103D4
:10056800D364224BDB6C03F00103FB60FB681F4B79
:10057800DB6C1E4A43F00203D3641C4BDB6C03F0B4
:100588000203BB60BB68194BDB6C184A43F00403D9
:10059800D364164BDB6C03F004037B607B6800229A
:1005A8004FF48861124800F0B7FC40237B610123B7
:1005B800BB610023FB6100233B6207F1140319466A
:1005C8000B4800F027FB4FF480637B610123BB617C
:1005D8000223FB6100233B6207F114031946044818
:1005E80000F018FB00BF2837BD4680BD0010024050
:1005F8000008004880B500AF01224021084800F0FB
:100608008BFC642000F000FA00224021044800F02E
:1006180083FC4FF4FA7000F0F7F900BFECE700BF75
:100628000008004880B400AF72B600BF00BFFDE705
:1006380080B582B000AF0F4B1B6E0E4A43F001032A
:1006480013660C4B1B6E03F001037B607B68094B40
:100658009B6D084A43F080539365064B9B6D03F0EE
:1006680080533B603B6801F0C9F900BF0837BD46BD
:1006780080BD00BF0010024080B5A0B000AF786018
:1006880007F16C0300221A605A609A60DA601A61F6
:1006980007F1180354220021184603F04FF87B682D
:1006A8001B682D4A934253D14023BB6100237B63CF
:1006B80007F11803184601F0DFFE0346002B01D0AE
:1006C800FFF7B0FF254BDB6C244A43F00103D364EA
:1006D800224BDB6C03F001037B617B691F4BDB6CF6
:1006E8001E4A43F00203D3641C4BDB6C03F0020385
:1006F8003B613B694FF40043FB6612233B670023D1
:100708007B670023BB670423FB6707F16C0319466B
:100718004FF0904000F07EFA8023FB6612233B677F
:1007280000237B670023BB670423FB6707F16C0387
:1007380019460B4800F06EFA084B9B6D074A43F4C4
:1007480000139365054B9B6D03F40013FB60FB6876
:1007580000BF8037BD4680BD0054004000100240F5
:100768000004004880B59EB000AF786007F1100320
:1007780054220021184602F0E1FF7B681B68304ACA
:10078800934258D14FF480633B614FF480133B642C
:1007980007F11003184601F06FFE0346002B01D045
:1007A800FFF740FF274B1B68002B0BD1264B1B6E16
:1007B800254A43F400131366234B1B6E03F40013FE
:1007C800FB60FB681F4B1B6801331E4A136008233C
:1007D8007B660223BB660023FB6600233B670D2371
:1007E8007B6707F1640319464FF0904000F012FA56
:1007F8004FF480637B660223BB660023FB660023FD
:100808003B670E237B6707F1640319460F4800F026
:1008180001FA4FF4C0637B660223BB660023FB66C4
:1008280000233B670E237B6707F1640319464FF0EB
:10083800904000F0EFF900BF7837BD4680BD00BF9B
:10084800045401401C03002000100240000400482A
:1008580080B400AF00BFFDE780B400AF00BFFDE784
:1008680080B400AF00BFFDE780B400AF00BFFDE774
:1008780080B400AF00BFFDE780B400AF00BFBD4645
:100888005DF8047B704780B400AF00BFBD465DF8DB
:10089800047B704780B400AF00BFBD465DF8047BA1
:1008A800704780B500AF00F091F800BF80BD000030
:1008B80080B400AF064BD3F88830054A43F4700380
:1008C800C2F8883000BFBD465DF8047B704700BFA2
:1008D80000ED00E00D488546FFF7EAFF0C480D499A
:1008E8000D4A002302E0D458C4500433C4188C4283
:1008F800F9D30A4A0A4C002301E013600432A242E9
:10090800FBD302F023FFFFF783FCFEE70000022081
:10091800000000200C000020D43900080C02002040
:1009280024030020FEE780B582B000AF0023FB71EE
:10093800032000F03DF90F2000F00EF80346002BCD
:1009480002D00123FB7101E0FFF772FEFB79184624
:100958000837BD4680BD000080B584B000AF786020
:100968000023FB73164B1B68002B22D0154B1A680B
:10097800134B1B684FF47A71B1FBF3F3B2FBF3F33B
:10098800184600F03AF90346002B0FD17B680F2B6D
:1009980009D8002279684FF0FF3000F014F90A4AAC
:1009A8007B68136007E00123FB7304E00123FB73FA
:1009B80001E00123FB73FB7B18461037BD4680BD61
:1009C80008000020000000200400002080B400AFD0
:1009D800054B1A68054B1B681344034A136000BF94
:1009E800BD465DF8047B7047200300200800002006
:1009F80080B400AF034B1B681846BD465DF8047B06
:100A0800704700BF2003002080B584B000AF786035
:100A1800FFF7EEFFB8607B68FB60FB68B3F1FF3F50
:100A280004D0094B1B68FA681344FB6000BFFFF74A
:100A3800DFFF0246BB68D31AFA689A42F7D800BFAC
:100A480000BF1037BD4680BD0800002080B485B0C7
:100A580000AF78607B6803F00703FB600C4BDB6832
:100A6800BB60BA684FF6FF031340BB60FB681A020D
:100A7800BB68134343F0BF6343F40033BB60044ACD
:100A8800BB68D36000BF1437BD465DF8047B704770
:100A980000ED00E080B400AF044BDB681B0A03F0F4
:100AA80007031846BD465DF8047B704700ED00E07B
:100AB80080B483B000AF03463960FB7197F9073003
:100AC800002B0ADB3B68DAB20C4997F907301201B0
:100AD800D2B20B4483F800230AE03B68DAB2084933
:100AE800FB7903F00F03043B1201D2B20B441A76D0
:100AF80000BF0C37BD465DF8047B704700E100E09D
:100B080000ED00E080B489B000AFF860B9607A60A9
:100B1800FB6803F00703FB61FB69C3F10703042BC0
:100B280028BF0423BB61FB690433062B02D9FB6988
:100B3800033B00E000237B614FF0FF32BB6902FA00
:100B480003F3DA43BB681A407B699A404FF0FF31E0
:100B58007B6901FA03F3D9437B680B4013431846BA
:100B68002437BD465DF8047B7047000080B582B02D
:100B780000AF78607B68013BB3F1807F01D301232C
:100B88000FE00A4A7B68013B53600F214FF0FF30AA
:100B9800FFF78EFF054B00229A60044B07221A606C
:100BA800002318460837BD4680BD00BF10E000E0AE
:100BB80080B582B000AF78607868FFF747FF00BF64
:100BC8000837BD4680BD80B586B000AF0346B96022
:100BD8007A60FB73FFF75EFF78617A68B9687869B5
:100BE800FFF790FF024697F90F3011461846FFF7B6
:100BF8005FFF00BF1837BD4680BD80B582B000AF2B
:100C080078607868FFF7B2FF034618460837BD4694
:100C180080BD000080B487B000AF786039600023E1
:100C28007B615AE13B681A6801217B6901FA03F389
:100C38001340FB60FB68002B00F04C813B685B684D
:100C480003F00303012B05D03B685B6803F0030343
:100C5800022B30D17B689B683B617B695B00032278
:100C680002FA03F3DB433A6913403B613B68DA68F5
:100C78007B695B0002FA03F33A6913433B617B68C3
:100C88003A699A607B685B683B6101227B6902FA7A
:100C980003F3DB433A6913403B613B685B681B091C
:100CA80003F001027B6902FA03F33A6913433B61DB
:100CB8007B683A695A603B685B6803F00303032B5F
:100CC80017D07B68DB683B617B695B00032202FA13
:100CD80003F3DB433A6913403B613B689A687B69DD
:100CE8005B0002FA03F33A6913433B617B683A6994
:100CF800DA603B685B6803F00303022B23D17B694E
:100D0800DA087B68083253F822303B617B6903F0CC
:100D180007039B000F2202FA03F3DB433A691340EF
:100D28003B613B681A697B6903F007039B0002FA81
:100D380003F33A6913433B617B69DA087B6808323D
:100D4800396943F822107B681B683B617B695B004B
:100D5800032202FA03F3DB433A6913403B613B6821
:100D68005B6803F003027B695B0002FA03F33A69EC
:100D780013433B617B683A691A603B685B6803F41C
:100D88004033002B00F0A6805B4B1B6E5A4A43F0A1
:100D980001031366584B1B6E03F00103BB60BB686D
:100DA800564A7B699B08023352F823303B617B69C2
:100DB80003F003039B000F2202FA03F3DB433A69B3
:100DC80013403B617B68B3F1904F1FD07B684C4A5E
:100DD800934219D07B684B4A934213D07B684A4AA6
:100DE80093420DD07B68494A934207D07B68484AB2
:100DF800934201D105230AE0062308E0042306E014
:100E0800032304E0022302E0012300E000237A69BF
:100E180002F00302920093403A6913433B61374959
:100E28007B699B0802333A6941F82320394B9B6858
:100E38003B61FB68DB433A6913403B613B685B6895
:100E480003F48013002B03D03A69FB6813433B611A
:100E5800304A3B6993602F4BDB683B61FB68DB439F
:100E68003A6913403B613B685B6803F40013002B4D
:100E780003D03A69FB6813433B61264A3B69D36058
:100E8800244B5B683B61FB68DB433A6913403B6179
:100E98003B685B6803F40033002B03D03A69FB68B6
:100EA80013433B611B4A3B6953601A4B1B683B6108
:100EB800FB68DB433A6913403B613B685B6803F4BA
:100EC8008033002B03D03A69FB6813433B61114A16
:100ED8003B6913607B6901337B613B681A687B69F6
:100EE80022FA03F3002B7FF49DAE00BF00BF1C372E
:100EF800BD465DF8047B70470010024000000140C9
:100F08000004004800080048000C00480010004891
:100F1800001400480004014080B483B000AF78603A
:100F28000B467B8013467B707B78002B03D07A8836
:100F38007B689A6102E07A887B689A6200BF0C3706
:100F4800BD465DF8047B704780B582B000AF78601D
:100F58007B68002B01D101238DE07B6893F8413039
:100F6800DBB2002B06D17B68002283F8402078682A
:100F7800FFF782FB7B68242283F841207B681B688B
:100F88001A687B681B6822F001021A607B685A683D
:100F98007B681B6822F070621A617B681B689A681C
:100FA8007B681B6822F400429A607B68DB68012B2F
:100FB80007D17B689A687B681B6842F400429A6094
:100FC80006E07B689A687B681B6842F404429A6072
:100FD8007B68DB68022B08D17B681B685A687B68D2
:100FE8001B6842F400625A6007E07B681B685A6815
:100FF8007B681B6822F400625A607B681B685B6828
:101008007A68126843F0007343F4004353607B68C6
:101018001B68DA687B681B6822F40042DA607B6828
:101028001A697B685B6942EA03017B689B691A025B
:101038007B681B680A43DA607B68D9697B681A6A2F
:101048007B681B680A431A607B681B681A687B68A0
:101058001B6842F001021A607B6800225A647B68B0
:10106800202283F841207B6800221A637B680022D3
:1010780083F84220002318460837BD4680BD00008B
:1010880080B588B002AFF860084611461A46034694
:101098007B810B463B811346FB80FB6893F841300C
:1010A800DBB2202B40F0F9803B6A002B02D0BB8CCE
:1010B800002B05D1FB684FF400725A640123EDE060
:1010C800FB6893F84030012B01D10223E6E0FB686E
:1010D800012283F84020FFF78BFC78617B6900933D
:1010E800192301224FF40041F86800F055F903462E
:1010F800002B01D00123D1E0FB68212283F8412095
:10110800FB68402283F84220FB6800225A64FB688F
:101118003A6A5A62FB68BA8C5A85FB6800225A639D
:10112800F8883A8979897B690193BB6A00930346F9
:10113800F86800F0B9F80346002B05D0FB680022D8
:1011480083F840200123A9E0FB685B8D9BB2FF2B4D
:101158000ED9FB68FF221A85FB681B8DDAB27989E4
:10116800002300934FF08073F86800F0D9FA0FE07D
:10117800FB685B8D9AB2FB681A85FB681B8DDAB237
:101188007989002300934FF00073F86800F0C8FADB
:101198007A69B96AF86800F058F90346002B01D05B
:1011A80001237BE0FB685B6A1A78FB681B689A621C
:1011B800FB685B6A5A1CFB685A62FB685B8D9BB2D2
:1011C800013B9AB2FB685A85FB681B8D013B9AB2BA
:1011D800FB681A85FB685B8D9BB2002B34D0FB68DB
:1011E8001B8D002B30D17B690093BB6A00228021C4
:1011F800F86800F0D1F80346002B01D001234DE038
:10120800FB685B8D9BB2FF2B0ED9FB68FF221A850A
:10121800FB681B8DDAB27989002300934FF0807345
:10122800F86800F07DFA0FE0FB685B8D9AB2FB6806
:101238001A85FB681B8DDAB27989002300934FF079
:101248000073F86800F06CFAFB685B8D9BB2002BAA
:101258009ED17A69B96AF86800F03EF90346002B16
:1012680001D001231AE0FB681B682022DA61FB68C1
:101278001B685968FB681A680A4B0B405360FB6887
:10128800202283F84120FB68002283F84220FB6873
:10129800002283F84020002300E002231846183774
:1012A800BD4680BD00E800FE80B586B002AFF8609C
:1012B800084611461A4603467B810B463B81134676
:1012C800FB80FB88DAB27989204B00934FF080735A
:1012D800F86800F025FAFA69B969F86800F0B5F815
:1012E8000346002B01D001232CE0FB88012B05D1FC
:1012F8003B89DAB2FB681B689A6215E03B891B0AD6
:101308009BB2DAB2FB681B689A62FA69B969F86835
:1013180000F09BF80346002B01D0012312E03B8923
:10132800DAB2FB681B689A62FB690093BB6900220A
:101338008021F86800F030F80346002B01D0012323
:1013480000E0002318461037BD4680BD002000800D
:1013580080B483B000AF78607B681B689B6903F03A
:101368000203022B03D17B681B6800229A627B6808
:101378001B689B6903F00103012B07D07B681B687E
:101388009A697B681B6842F001029A6100BF0C37BA
:10139800BD465DF8047B704780B584B000AFF86047
:1013A800B9603B601346FB713BE0BA693968F8687D
:1013B80000F0D6F80346002B01D0012341E03B683A
:1013C800B3F1FF3F2DD0FFF713FB0246BB69D31AD9
:1013D8003A689A4202D33B68002B22D1FB681B680B
:1013E8009A69BB681340BA689A420CBF012300236C
:1013F800DBB21A46FB799A4213D1FB685B6C43F067
:101408002002FB685A64FB68202283F84120FB68AD
:10141800002283F84220FB68002283F84020012341
:101428000FE0FB681B689A69BB681340BA689A4268
:101438000CBF01230023DBB21A46FB799A42B4D0D1
:10144800002318461037BD4680BD80B584B000AF74
:10145800F860B9607A6033E07A68B968F86800F0D3
:101468007FF80346002B01D0012331E0BB68B3F1BC
:10147800FF3F25D0FFF7BCFA02467B68D31ABA684B
:101488009A4202D3BB68002B1AD1FB681B689B6980
:1014980003F00203022B13D0FB685B6C43F02002BD
:1014A800FB685A64FB68202283F84120FB6800220D
:1014B80083F84220FB68002283F84020012307E0DC
:1014C800FB681B689B6903F00203022BC4D100234D
:1014D80018461037BD4680BD80B584B000AFF860AF
:1014E800B9607A602FE07A68B968F86800F038F86F
:1014F8000346002B01D001232DE0FFF779FA0246BD
:101508007B68D31ABA689A4202D3BB68002B1AD1F7
:10151800FB681B689B6903F02003202B13D0FB6832
:101528005B6C43F02002FB685A64FB68202283F856
:101538004120FB68002283F84220FB68002283F8E0
:101548004020012307E0FB681B689B6903F0200328
:10155800202BC8D1002318461037BD4680BD000097
:1015680080B58AB000AFF860B9607A60002387F868
:101578002730FB681B689B69BB6100233B627B6863
:10158800FB61BB6903F01003002B68D0FB681B6884
:101598001022DA6149E0BB68B3F1FF3F45D0FFF79D
:1015A80027FA0246FB69D31ABA689A4202D3BB6883
:1015B800002B3AD1FB681B685B6803F480437B61AE
:1015C800FB6893F84230FB74FB681B689B6903F463
:1015D8000043B3F5004F21D17B69B3F5804F1DD08F
:1015E800FB7C202B1AD0FB681B685A68FB681B68B9
:1015F80042F480425A60FFF7FBF9F8610EE0FFF70A
:10160800F7F90246FB69D31A192B07D93B6A43F04D
:1016180020033B62012387F8273006E0FB681B683C
:101628009B6903F02003202BE9D1FB681B689B69A9
:1016380003F02003202B03D097F82730002BAAD0E3
:1016480097F82730002B03D1FB681B682022DA614A
:101658003B6A43F004033B62012387F82730FB68A9
:101668001B689B69BB61BB6903F48073002B0BD0BB
:101678003B6A43F001033B62FB681B684FF48072CE
:10168800DA61012387F82730BB6903F48063002BF4
:101698000BD03B6A43F008033B62FB681B684FF4BE
:1016A8008062DA61012387F82730BB6903F400738D
:1016B800002B0BD03B6A43F002033B62FB681B68BC
:1016C8004FF40072DA61012387F8273097F8273042
:1016D800002B1CD0F868FFF73BFEFB681B685968B5
:1016E800FB681A680D4B0B405360FB685A6C3B6AE9
:1016F8001A43FB685A64FB68202283F84120FB6880
:10170800002283F84220FB68002283F8402097F8E3
:10171800273018462837BD4680BD00BF00E800FEC8
:1017280080B487B000AFF8607B600B467B811346BE
:101738007B727B89C3F309027B7A1B0403F47F0362
:101748001A437B681A433B6A134323F000437B61C7
:10175800FB681B685A683B6A5B0D03F48061084BA1
:101768000B43DB4302EA0301FB681B687A690A43FF
:101778005A6000BF1C37BD465DF8047B704700BF48
:10178800FF63FF0380B483B000AF786039607B6883
:1017980093F84130DBB2202B38D17B6893F8403086
:1017A800012B01D1022332E07B68012283F840201B
:1017B8007B68242283F841207B681B681A687B6851
:1017C8001B6822F001021A607B681B681A687B6834
:1017D8001B6822F480521A607B681B6819687B6852
:1017E8001B683A680A431A607B681B681A687B683A
:1017F8001B6842F001021A607B68202283F84120AE
:101808007B68002283F84020002300E0022318466A
:101818000C37BD465DF8047B704780B485B000AFD7
:10182800786039607B6893F84130DBB2202B39D17E
:101838007B6893F84030012B01D1022333E07B68A9
:10184800012283F840207B68242283F841207B68AA
:101858001B681A687B681B6822F001021A607B68A3
:101868001B681B68FB60FB6823F47063FB603B68C4
:101878001B02FA681343FB607B681B68FA681A60EE
:101888007B681B681A687B681B6842F001021A6053
:101898007B68202283F841207B68002283F840205F
:1018A800002300E0022318461437BD465DF8047B88
:1018B8007047000080B485B000AF78607B68002B6B
:1018C80041D14B4B1B6803F4C063B3F5806F31D132
:1018D800474BD3F88030464A23F48073C2F88030EF
:1018E800434B1B6823F4C063414A43F400731360FD
:1018F800404B1B68322202FB03F33F4AA2FB03233F
:101908009B0C0133FB6002E0FB68013BFB60384B3A
:101918005B6903F48063B3F5806F02D1FB68002B29
:10192800F2D1334B5B6903F48063B3F5806F58D110
:10193800032357E02E4BD3F880302D4A23F48073CD
:10194800C2F880304DE07B68B3F5007F41D1284B69
:101958001B6803F4C063B3F5806F31D1244BD3F80F
:101968008030234A43F48073C2F88030204B1B68D0
:1019780023F4C0631E4A43F4007313601D4B1B68B5
:10198800322202FB03F31C4AA2FB03239B0C013304
:10199800FB6002E0FB68013BFB60154B5B6903F4ED
:1019A8008063B3F5806F02D1FB68002BF2D1104B36
:1019B8005B6903F48063B3F5806F12D1032311E0F0
:1019C8000B4BD3F880300A4A43F48073C2F8803056
:1019D80007E0074B1B6823F4C063054A43F48063A0
:1019E8001360002318461437BD465DF8047B704722
:1019F800007000400000002083DE1B4380B400AF6D
:101A0800054B9B68044A43F48043936000BFBD467E
:101A18005DF8047B704700BF0070004080B588B057
:101A280000AF78607B68002B01D10123FEE27B6860
:101A38001B6803F00103002B75D0974B9B6803F0DC
:101A48000C03BB61944BDB6803F003037B61BB6948
:101A58000C2B02D17B69032B02D0BB69082B0BD15D
:101A68008D4B1B6803F40033002B5BD07B685B68ED
:101A7800002B57D10123D9E27B685B68B3F5803F1F
:101A880006D1854B1B68844A43F4803313601DE0FC
:101A98007B685B68B3F5A02F0CD17F4B1B687E4A2F
:101AA80043F4802313607C4B1B687B4A43F48033E8
:101AB80013600BE0784B1B68774A23F4803313607C
:101AC800754B1B68744A23F4802313607B685B683A
:101AD800002B13D0FEF78CFF386108E0FEF788FF73
:101AE80002463B69D31A642B01D903239EE26A4B51
:101AF8001B6803F40033002BF0D014E0FEF778FFE6
:101B0800386108E0FEF774FF02463B69D31A642B7C
:101B180001D903238AE2604B1B6803F40033002BCE
:101B2800F0D100E000BF7B681B6803F00203002BC4
:101B380075D0594B9B6803F00C03BB61564BDB68AF
:101B480003F003037B61BB690C2B02D17B69022B79
:101B580002D0BB69042B1FD14F4B1B6803F4806371
:101B6800002B05D07B68DB68002B01D101235DE2E7
:101B7800494B5B6823F0FE427B681B691B0646499C
:101B880013434B60454B1B681846FEF7E5FE0346BA
:101B9800002B43D0012349E27B68DB68002B23D06C
:101BA8003D4B1B683C4A43F480731360FEF720FFEB
:101BB800386108E0FEF71CFF02463B69D31A022B86
:101BC80001D9032332E2344B1B6803F48063002BF2
:101BD800F0D0314B5B6823F0FE427B681B691B0623
:101BE8002D4913434B601AE02B4B1B682A4A23F4F8
:101BF80080731360FEF7FCFE386108E0FEF7F8FE1C
:101C080002463B69D31A022B01D903230EE2224B69
:101C18001B6803F48063002BF0D100E000BF7B68F1
:101C28001B6803F00803002B41D07B685B69002B1D
:101C38001CD0194BD3F89430174A43F00103C2F86B
:101C48009430FEF7D5FE386108E0FEF7D1FE024673
:101C58003B69D31A022B01D90323E7E10E4BD3F8D2
:101C6800943003F00203002BEFD020E00A4BD3F8A6
:101C78009430094A23F00103C2F89430FEF7B8FE05
:101C880038610DE0FEF7B4FE02463B69D31A022B19
:101C980006D90323CAE100BF001002400400002057
:101CA8008C4BD3F8943003F00203002BEAD17B6805
:101CB8001B6803F00403002B00F0A6800023FB77C9
:101CC800844B9B6D03F08053002B01D1012300E06E
:101CD8000023002B0DD07F4B9B6D7E4A43F0805331
:101CE80093657C4B9B6D03F08053FB60FB6801237D
:101CF800FB77794B1B6803F48073002B18D1764B64
:101D08001B68754A43F480731360FEF771FE3861EF
:101D180008E0FEF76DFE02463B69D31A022B01D993
:101D2800032383E16C4B1B6803F48073002BF0D012
:101D38007B689B68012B08D1664BD3F89030654AC5
:101D480043F00103C2F8903024E07B689B68052BC0
:101D580010D1604BD3F890305E4A43F00403C2F8C8
:101D680090305C4BD3F890305A4A43F00103C2F8E4
:101D780090300FE0574BD3F89030564A23F00103C8
:101D8800C2F89030534BD3F89030524A23F00403F2
:101D9800C2F890307B689B68002B16D0FEF728FEAF
:101DA80038610AE0FEF724FE02463B69D31A41F285
:101DB8008832934201D9032338E1464BD3F8903057
:101DC80003F00203002BEDD015E0FEF711FE386199
:101DD8000AE0FEF70DFE02463B69D31A41F288324B
:101DE800934201D9032321E13A4BD3F8903003F011
:101DF8000203002BEDD1FB7F012B05D1354B9B6DE9
:101E0800344A23F0805393657B681B6803F02003F2
:101E1800002B3CD07B689B69002B1CD02D4BD3F842
:101E280098302C4A43F00103C2F89830FEF7E0FDE1
:101E3800386108E0FEF7DCFD02463B69D31A022B45
:101E480001D90323F2E0234BD3F8983003F00203BF
:101E5800002BEFD01BE01F4BD3F898301D4A23F01E
:101E68000103C2F89830FEF7C3FD386108E0FEF7B9
:101E7800BFFD02463B69D31A022B01D90323D5E0E3
:101E8800144BD3F8983003F00203002BEFD17B6892
:101E9800DB69002B00F0C9800E4B9B6803F00C0334
:101EA8000C2B00F083807B68DB69022B5ED1094B29
:101EB8001B68084A23F080731360FEF799FD3861A8
:101EC8000CE0FEF795FD02463B69D31A022B05D9B3
:101ED8000323ABE00010024000700040554B1B6824
:101EE80003F00073002BECD1524BDA68524B1340CD
:101EF8007A68116A7A68526A013A120111437A685B
:101F0800926A120211437A68126B5208013A52051A
:101F180011437A68526B5208013A520611437A68A3
:101F2800D26AD2060A4343491343CB60414B1B682C
:101F3800404A43F0807313603E4BDB683D4A43F0F0
:101F48008073D360FEF754FD386108E0FEF750FD5A
:101F580002463B69D31A022B01D9032366E0354BAD
:101F68001B6803F00073002BF0D05EE0314B1B6858
:101F7800304A23F080731360FEF73AFD386108E0B9
:101F8800FEF736FD02463B69D31A022B01D903231B
:101F98004CE0284B1B6803F00073002BF0D1254B55
:101FA800DA682449254B1340CB603EE07B68DB6947
:101FB800012B01D1012339E01E4BDB687B617B6972
:101FC80003F003027B681B6A9A422CD17B6903F0F9
:101FD800F0027B685B6A013B1B019A4223D17B6953
:101FE80003F4FE427B689B6A1B029A421BD17B6901
:101FF80003F078427B68DB6ADB069A4213D17B697F
:1020080003F4C0027B681B6B5B08013B5B059A42CB
:1020180009D17B6903F0C0627B685B6B5B08013B9D
:102028005B069A4201D0012300E0002318462037BE
:10203800BD4680BD001002400C809F01FCFFEEFEF3
:1020480080B586B000AF7860396000237B617B681B
:10205800002B01D101231EE1914B1B6803F00F03F4
:102068003A689A4210D98E4B1B6823F00F028C49AC
:102078003B6813430B608A4B1B6803F00F033A68F5
:102088009A4201D0012306E17B681B6803F0010333
:10209800002B73D07B685B68032B29D1814B1B68AD
:1020A80003F00073002B01D10123F4E000F09EF946
:1020B80038613B697C4A93423FD97A4B9B6803F06D
:1020C800F003002B09D07B681B6803F00203002B88
:1020D80033D07B689B68002B2FD1724B9B6823F011
:1020E800F003704A43F08003936080237B6124E00F
:1020F8007B685B68022B07D16A4B1B6803F40033CB
:10210800002B09D10123C6E0664B1B6803F48063EA
:10211800002B01D10123BEE000F0CEF838613B6905
:10212800614A934209D95F4B9B6823F0F0035D4AEB
:1021380043F08003936080237B615A4B9B6823F0B4
:1021480003027B685B68574913438B60FEF750FCBA
:10215800F8600AE0FEF74CFC0246FB68D31A41F22D
:102168008832934201D9032395E04E4B9B6803F0D4
:102178000C027B685B689B009A42EBD17B681B680A
:1021880003F00203002B23D07B681B6803F00403D1
:10219800002B05D0434B9B68424A43F4E0639360AD
:1021A8007B681B6803F00803002B07D03D4B9B6836
:1021B80023F47C533B4A43F4E0639360394B9B68B8
:1021C80023F0F0027B689B68364913438B6008E074
:1021D8007B69802B05D1334B9B68324A23F0F0038F
:1021E80093602F4B1B6803F00F033A689A421DD285
:1021F8002B4B1B6823F00F0229493B6813430B60E4
:10220800FEF7F6FBF8600AE0FEF7F2FB0246FB6811
:10221800D31A41F28832934201D903233BE0204B81
:102228001B6803F00F033A689A42EDD17B681B687C
:1022380003F00403002B08D01A4B9B6823F4E062D8
:102248007B68DB68174913438B607B681B6803F066
:102258000803002B09D0134B9B6823F460527B685A
:102268001B69DB000F4913438B6000F025F8024619
:102278000C4B9B681B0903F00F030C49CB5C03F064
:102288001F0322FA03F30A4A13600A4B1B68184615
:10229800FEF762FB034618461837BD4680BD00BFEF
:1022A800002002400010024000B4C404B439000801
:1022B800000000200400002080B487B000AF2C4B41
:1022C8009B6803F00C03042B02D12A4B3B6147E0C7
:1022D800274B9B6803F00C03082B02D1264B3B616C
:1022E8003EE0234B9B6803F00C030C2B36D1204BAC
:1022F800DB6803F00303FB601D4BDB681B0903F07D
:102308000F030133BB60FB68032B0CD11A4ABB686F
:10231800B2FBF3F3164AD268120A02F07F0202FBFC
:1023280003F37B610CE0134ABB68B2FBF3F3104A7A
:10233800D268120A02F07F0202FB03F37B6100BF3E
:102348000B4BDB685B0E03F0030301335B007B6020
:102358007A697B68B2FBF3F33B6101E000233B61E0
:102368003B6918461C37BD465DF8047B704700BFC3
:10237800001002400024F40000127A0080B400AF7C
:10238800034B1B681846BD465DF8047B704700BFC9
:102398000000002080B500AFFFF7F0FF0246064BB3
:1023A8009B681B0A03F007030449CB5C03F01F0377
:1023B80022FA03F3184680BD00100240C439000811
:1023C80080B500AFFFF7DAFF0246064B9B68DB0AD1
:1023D80003F007030449CB5C03F01F0322FA03F35D
:1023E800184680BD00100240C439000880B487B088
:1023F80000AF1E4BDB6803F003033B611B4BDB683C
:102408001B0903F00F030133FB603B69032B0CD15D
:10241800174AFB68B2FBF3F3144AD268120A02F0B7
:102428007F0202FB03F37B610CE0124AFB68B2FBFC
:10243800F3F30E4AD268120A02F07F0202FB03F39A
:102448007B6100BF094BDB685B0E03F003030133BC
:102458005B00BB607A69BB68B2FBF3F37B607B68A7
:1024680018461C37BD465DF8047B704700100240D3
:1024780000127A000024F40080B586B000AF7860BE
:102488000023FB740023BB747B681B6803F40023E0
:10249800002B00F0988000237B74434B9B6D03F066
:1024A8008053002B0DD1404B9B6D3F4A43F0805326
:1024B80093653D4B9B6D03F08053BB60BB68012364
:1024C8007B743A4B1B68394A43F480731360FEF7F8
:1024D8008FFAF86009E0FEF78BFA0246FB68D31A18
:1024E800022B02D90323FB7405E0304B1B6803F46D
:1024F8008073002BEFD0FB7C002B59D12A4BD3F8EB
:10250800903003F440737B617B69002B1ED07B689D
:102518001B6D7A699A4219D0234BD3F8903023F473
:1025280040737B61204BD3F890301F4A43F48033CB
:10253800C2F890301C4BD3F890301B4A23F48033F8
:10254800C2F89030184A7B69C2F890307B6903F072
:102558000103002B16D0FEF74BFAF8600BE0FEF7EC
:1025680047FA0246FB68D31A41F28832934202D9ED
:102578000323FB7406E00C4BD3F8903003F00203FE
:10258800002BECD0FB7C002B0BD1074BD3F8903001
:1025980023F440727B681B6D03491343C1F89030E4
:1025A80008E0FB7CBB7405E00010024000700040AE
:1025B800FB7CBB747B7C012B05D1A74B9B6DA64A8A
:1025C80023F0805393657B681B6803F00103002B9D
:1025D8000AD0A14BD3F8883023F003027B685B68EC
:1025E8009D491343C1F888307B681B6803F00203D8
:1025F800002B0AD0984BD3F8883023F00C027B6864
:102608009B6895491343C1F888307B681B6803F0C1
:102618000403002B0AD0904BD3F8883023F0300203
:102628007B68DB688C491343C1F888307B681B687A
:1026380003F00803002B0AD0874BD3F8883023F027
:10264800C0027B681B6984491343C1F888307B68E2
:102658001B6803F01003002B0AD07F4BD3F8883097
:1026680023F440727B685B697B491343C1F8883067
:102678007B681B6803F02003002B0AD0764BD3F845
:10268800883023F440627B689B6973491343C1F81F
:1026980088307B681B6803F04003002B0AD06E4B20
:1026A800D3F8883023F440527B68DB696A491343C6
:1026B800C1F888307B681B6803F08003002B0AD0C0
:1026C800654BD3F8883023F440427B681B6A624923
:1026D8001343C1F888307B681B6803F48073002BB0
:1026E8000AD05D4BD3F8883023F440327B685B6AAC
:1026F80059491343C1F888307B681B6803F40033D9
:10270800002B0AD0544BD3F89C3023F003027B688B
:102718009B6A51491343C1F89C307B681B6803F4DA
:102728000073002B0AD04C4BD3F8883023F4402296
:102738007B68DB6A48491343C1F888307B681B68AB
:1027480003F48063002B15D0434BD3F8883023F46F
:1027580040127B681B6B40491343C1F888307B6883
:102768001B6BB3F5801F05D13B4BDB683A4A43F43A
:102778008013D3607B681B6803F40063002B15D0BB
:10278800354BD3F8883023F440027B685B6B3249C1
:102798001343C1F888307B685B6BB3F5800F05D1B4
:1027A8002D4BDB682C4A43F48013D3607B681B688D
:1027B80003F48053002B15D0274BD3F8883023F02F
:1027C80040727B689B6B24491343C1F888307B684F
:1027D8009B6BB3F1807F05D11F4BDB681E4A43F426
:1027E8008013D3607B681B6803F40053002B15D05B
:1027F800194BD3F8883023F040627B68DB6B1649AD
:102808001343C1F888307B68DB6BB3F1006F05D1E7
:10281800114BDB68104A43F48013D3607B681B6854
:1028280003F48043002B19D00B4BD3F8883023F0E6
:1028380040627B681B6C08491343C1F888307B6889
:102848001B6CB3F1006F09D1034BDB68024A43F4F8
:102858008013D36002E000BF001002407B681B6851
:1028680003F40043002B15D0294BD3F8883023F00C
:1028780040527B685B6C26491343C1F888307B68FB
:102888005B6CB3F1805F05D1214BDB68204A43F4D0
:102898008033D3607B681B6803F48033002B15D02A
:1028A8001B4BD3F8883023F040427B689B6C184957
:1028B8001343C1F888307B689B6CB3F1804F05D116
:1028C800134BDB68124A43F48033D3607B681B6880
:1028D80003F48023002B15D00D4BD3F89C3023F440
:1028E80040127B68DB6C0A491343C1F89C307B6853
:1028F800DB6CB3F5001F05D1054BDB68044A43F4D4
:102908008013D360BB7C18461837BD4680BD00BF16
:102918000010024080B588B000AF78600023FB61EA
:102928007B68B3F5002F36D1B14BD3F8903003F460
:1029380040733B61AE4BD3F8903003F00203022B97
:1029480008D13B69B3F5807F04D14FF40043FB61A4
:1029580000F012BDA64BD3F8943003F00203022B0B
:1029680008D13B69B3F5007F04D14FF4FA43FB610A
:1029780000F002BD9E4B1B6803F40033B3F5003F23
:1029880040F0FA843B69B3F5407F40F0F584994BF9
:10299800FB6100F0F1BC964BDB6803F00303022BEC
:1029A8000CD1934B1B6803F48063B3F5806F02D19D
:1029B800914BBB6117E00023BB6114E08C4BDB68D3
:1029C80003F00303032B0CD1894B1B6803F400337A
:1029D800B3F5003F02D1894BBB6104E00023BB6122
:1029E80001E00023BB61824BDB681B0903F00F0386
:1029F8000133BA69B2FBF3F3BB617B68B3F5802F8F
:102A080000F066847B68B3F5802F00F28E847B68C3
:102A1800B3F5003F00F063827B68B3F5003F00F236
:102A280084847B68B3F5803F00F017847B68B3F536
:102A3800803F00F27A847B68B3F5004F00F0D083C2
:102A48007B68B3F5004F00F270847B68B3F5804F64
:102A580000F098837B68B3F5804F00F266847B684A
:102A6800B3F5005F00F060837B68B3F5005F00F2A8
:102A78005C847B68B3F5805F00F018837B68B3F5EE
:102A8800805F00F252847B68B3F5006F00F0CA8261
:102A98007B68B3F5006F00F248847B68B3F5806FFC
:102AA80000F07C827B68B3F5806F00F23E847B681F
:102AB800B3F5007F00F036827B68B3F5007F00F243
:102AC80034847B68B3F5807F00F0E4817B68B3F5DC
:102AD800807F00F22A847B68802B00F0B1817B68BC
:102AE800802B00F222847B68202B4BD87B68002B3C
:102AF80000F01B847B68013B1F2B00F2168401A2A7
:102B080052F823F0972B0008092C000833330008EB
:102B18006B2C0008333300083333000833330008C4
:102B2800CD2C000833330008333300083333000852
:102B380033330008333300083333000833330008D5
:102B48002F2D0008333300083333000833330008CF
:102B580033330008333300083333000833330008B5
:102B680033330008333300083333000833330008A5
:102B78003333000833330008333300083333000895
:102B8800972D00087B68402B00F03581CDE3184B6A
:102B9800D3F8883003F003033B613B69002B03D172
:102BA800FFF70EFCF861C2E33B69012B03D1FFF785
:102BB80083FBF861BBE30E4B1B6803F48063B3F53A
:102BC800806F05D13B69022B02D10B4BFB61AEE351
:102BD800074BD3F8903003F00203022B40F0A78391
:102BE8003B69032B40F0A3834FF40043FB619EE352
:102BF8000010024090D003000024F40000127A0074
:102C0800A24BD3F8883003F00C033B613B69002BDF
:102C180003D1FFF7BFFBF8618BE33B69042B03D1BA
:102C2800FFF74AFBF86184E3984B1B6803F4806361
:102C3800B3F5806F05D13B69082B02D1944BFB613A
:102C480077E3924BD3F8903003F00203022B40F065
:102C580070833B690C2B40F06C834FF40043FB619D
:102C680067E38A4BD3F8883003F030033B613B6954
:102C7800002B03D1FFF78EFBF8615CE33B69102B57
:102C880003D1FFF719FBF86155E3804B1B6803F488
:102C98008063B3F5806F05D13B69202B02D17C4B53
:102CA800FB6148E3794BD3F8903003F00203022B21
:102CB80040F041833B69302B40F03D834FF40043A3
:102CC800FB6138E3714BD3F8883003F0C0033B61F4
:102CD8003B69002B03D1FFF75DFBF8612DE33B69EE
:102CE800402B03D1FFF7E8FAF86126E3674B1B682E
:102CF80003F48063B3F5806F05D13B69802B02D163
:102D0800634BFB6119E3614BD3F8903003F0020386
:102D1800022B40F012833B69C02B40F00E834FF426
:102D28000043FB6109E3594BD3F8883003F440733F
:102D38003B613B69002B03D1FFF72CFBF861FEE2F6
:102D48003B69B3F5807F03D1FFF7B6FAF861F6E285
:102D58004E4B1B6803F48063B3F5806F06D13B6963
:102D6800B3F5007F02D14A4BFB61E8E2474BD3F849
:102D7800903003F00203022B40F0E1823B69B3F587
:102D8800407F40F0DC824FF40043FB61D7E23F4BC9
:102D9800D3F8883003F440633B613B69002B03D1CF
:102DA800FFF7F8FAF861CCE23B69B3F5806F03D11D
:102DB800FFF782FAF861C4E2344B1B6803F48063BE
:102DC800B3F5806F06D13B69B3F5006F02D1304B84
:102DD800FB61B6E22D4BD3F8903003F00203022BCF
:102DE80040F0AF823B69B3F5406F40F0AA824FF4E0
:102DF8000043FB61A5E2254BD3F8883003F4405328
:102E08003B613B69002B03D1FFF7C4FAF8619AE2F2
:102E18003B69B3F5805F03D1FFF74EFAF86192E2A0
:102E28001A4B1B6803F48063B3F5806F40F08B8204
:102E38003B69B3F5005F40F08682154BFB6182E287
:102E4800124BD3F8883003F440433B613B69002BB5
:102E580003D1FFF79FFAF86177E23B69B3F5804F3A
:102E680003D1FFF729FAF8616FE2084B1B6803F4F6
:102E78008063B3F5806F40F068823B69B3F5004F1B
:102E880040F06382024BFB615FE200BF001002402A
:102E98000024F400A04BD3F8883003F440333B619E
:102EA8003B69002B03D1FFF775FAF8614FE23B69E4
:102EB800B3F5803F03D1FFF7FFF9F86147E2964B7E
:102EC8001B6803F48063B3F5806F40F040823B6970
:102ED800B3F5003F40F03B82904BFB6137E28E4BED
:102EE800D3F89C3003F003033B613B69002B03D10B
:102EF800FFF750FAF8612CE23B69012B03D1FFF789
:102F0800DBF9F86125E2844B1B6803F48063B3F5B1
:102F1800806F40F01E823B69022B40F01A827F4B83
:102F2800FB6116E27C4BD3F8883003F440233B6105
:102F38003B69002B03D1FFF72DFAF8610BE2764BC2
:102F4800D3F8943003F00203022B07D13B69B3F5A1
:102F5800802F03D14FF4FA43FB611EE06E4B1B68D0
:102F680003F48063B3F5806F06D13B69B3F5002F96
:102F780002D16A4BFB6110E0674BD3F8903003F045
:102F88000203022B40F0E7813B69B3F5402F40F084
:102F9800E2814FF40043FB61DDE1DCE15E4BD3F8F5
:102FA800883003F440133B613B69002B03D1FFF7E2
:102FB80083F9F861D1E13B69B3F5801F1BD1564B0A
:102FC800DB6803F48013002B00F0C781524BDB68E9
:102FD8001B0A03F07F03FB60BB69FA6803FB02F27C
:102FE8004D4BDB685B0D03F0030301335B00B2FB61
:102FF800F3F3FB61B1E13B69B3F5001F02D1484B24
:10300800FB61AAE1444B1B6803F48063B3F5806F4E
:1030180040F0A3813B69B3F5401F40F09E813F4BD0
:10302800FB619AE13C4BD3F8883003F440033B61E1
:103038003B69002B03D1FFF73FF9F8618FE13B694A
:10304800B3F5800F1BD1344BDB6803F48013002BDE
:1030580000F08581304BDB681B0A03F07F03FB60BF
:10306800BB69FA6803FB02F22B4BDB685B0D03F0CC
:10307800030301335B00B2FBF3F3FB616FE13B69D0
:10308800B3F5000F02D1264BFB6168E1224B1B68A8
:1030980003F48063B3F5806F40F061813B69B3F559
:1030A800400F40F05C811D4BFB6158E11A4BD3F88F
:1030B800883003F040733B613B69B3F1007F03D173
:1030C800FFF768F9F8614CE13B69002B02D1154B19
:1030D800FB6146E13B69B3F1807F40F042810E4BD2
:1030E800DB6803F48013002B00F03B810A4BDB689C
:1030F8001B0A03F07F03FB60BB69FA6803FB02F25B
:10310800054BDB685B0D03F0030301335B00B2FB87
:10311800F3F3FB6125E100BF001002400024F40036
:103128000080BB0000127A00964BD3F8883003F079
:1031380040633B613B69B3F1006F14D1914BDB688D
:103148001B0A03F07F03FB60BB69FA6803FB02F20A
:103158008C4BDB685B0D03F0030301335B00B2FBB0
:10316800F3F3FB61FFE0874BD3F8983003F00203D9
:10317800022B40F0F8803B69002B40F0F480824B32
:10318800FB61F0E07F4BD3F8883003F040633B618C
:103198003B69B3F1006F14D17A4BDB681B0A03F06B
:1031A8007F03FB60BB69FA6803FB02F2754BDB68BF
:1031B8005B0D03F0030301335B00B2FBF3F3FB6128
:1031C800D3E0704BD3F8983003F00203022B40F0A1
:1031D800CC803B69002B40F0C8806B4BFB61C4E09E
:1031E800684BD3F8883003F040533B613B69B3F137
:1031F800805F29D1634BDB6803F48033002B00F038
:10320800B680604BDB681B0A03F07F03FB605D4BF5
:10321800DB68DB0E03F01F037B617B69002B0AD19F
:10322800584BDB6803F40033002B02D011237B6179
:1032380001E007237B61BB69FA6803FB02F27B6943
:10324800B2FBF3F3FB6192E03B69B3F1005F40F03E
:103258008E80FFF731F8F86189E04A4BD3F888305F
:1032680003F040433B613B69B3F1804F28D1454BA4
:10327800DB6803F48033002B7BD0424BDB681B0AEE
:1032880003F07F03FB603F4BDB68DB0E03F01F039B
:103298007B617B69002B0AD13A4BDB6803F400336E
:1032A800002B02D011237B6101E007237B61BB69FE
:1032B800FA6803FB02F27B69B2FBF3F3FB6158E0A7
:1032C8003B69B3F1004F54D1FEF7F6FFF86150E0C7
:1032D8002C4BD3F89C3003F440133B613B69B3F5A6
:1032E800001F14D1274BDB681B0A03F07F03FB6028
:1032F800BB69FA6803FB02F2224BDB685B0D03F043
:10330800030301335B00B2FBF3F3FB6133E03B697A
:10331800B3F5801F02D11D4BFB612CE03B69002BEC
:1033280029D1FEF7C9FFF86125E000BF24E000BFFE
:1033380022E000BF20E000BF1EE000BF1CE000BF8D
:103348001AE000BF18E000BF16E000BF14E000BF9D
:1033580012E000BF10E000BF0EE000BF0CE000BFAD
:103368000AE000BF08E000BF06E000BF04E000BFBD
:1033780002E000BF00E000BFFB6918462037BD46E9
:1033880080BD00BF00100240006CDC020024F40085
:1033980080B588B000AF78607B68002B01D101232D
:1033A80086E17B6893F83830012B0ED17B681B6867
:1033B800614A934207D17B685B68012B03D17B6824
:1033C8005B6C002B01D0012372E17B6893F891308C
:1033D800DBB2002B06D17B68002283F89020786846
:1033E800FDF7C0F9786800F06FF90346002B01D0AB
:1033F80001235DE17B68022283F891207B689B684A
:10340800002B02D0012B03D006E00023BB6106E0AD
:103418004FF48063BB6102E00023BB6100BF7B689F
:103428001B6A002B6FD000237B617B681B68424AB4
:10343800934204D07B681B68404A934204D14FF4FE
:103448008060FFF767FA78617B689B69B3F5002FA6
:1034580020D17B685B6C042B02D14023FB600AE01F
:103468007B685B6C082B03D14FF48073FB6002E030
:103478007B685B6DFB607A6913469B0013445B00B5
:1034880019467B681B6AFA6802FB03F3B1FBF3F386
:103498003B6117E07B689B6AB3F1806F01D102231F
:1034A80000E00123BB607A6913469B0013445B006C
:1034B80019467B681B6ABA6802FB03F31B02B1FB5F
:1034C800F3F33B613B691E4AA2FB0323DA087B68DE
:1034D8005A6239691A4BA3FB0123DA0813469B0089
:1034E80013445B00CA1A082A04D97B685B6A5A1C11
:1034F8007B685A627B685B6C042B04D17B685B6ACF
:103508005A087B685A627B685B68002B03D07B682B
:103518005B68022B09D17B681B6D012B01D100234D
:1035280001E04FF40073FB610EE07B681B6D012B1B
:1035380008D14FF4007306E00454014024540140BC
:10354800CDCCCCCC0023FB617B681B6819687B68F9
:103558001A68594B0B4013607B681B6819687B68B5
:103568005A687B685B6C1A437B689B6C1A437B6860
:10357800DB6C1A43FB691A43BB691A437B68DB6A35
:103588001A437B685B691A437B689B691A437B68AB
:103598005B6A1B051A437B689B6A1A437B681B6935
:1035A8001A437B681B680A431A607B681B685B6860
:1035B8007A68126823F4604323F00F0353607B6832
:1035C8001B6859687B68DA697B681B6B1A437B68E0
:1035D8005B6B1A437B681B680A435A607B681B68ED
:1035E80099687B681A68354B0B4093607B681B6849
:1035F80099687B685B6D5A1E7B685B6E1A437B68B3
:10360800DB6D1A437B681B6E1A437B689B6D013B1D
:103618001B021A437B681B680A439A607B681B6815
:10362800D9687B681A684FF220030B40D3607B6827
:103638001B68D9687B689A6E7B68DB6E1A437B6867
:103648005B6F1B041A437B681B6F013B1B021A4309
:103658007B681B680A43DA607B681B68184A9342D8
:1036680019D1184B5B6C174A23F0010353647B682C
:1036780093F83830012B0ED17B681A6C7B68DB6BB2
:10368800013B1B010F4913434B640E4B5B6C0D4A06
:1036980043F0010353647B680022C3F894207B68DD
:1036A800012283F891207B68002283F89020002370
:1036B80018462037BD4680BD10C005F00080F8FFD1
:1036C800045401400054014080B485B000AF7860D4
:1036D800184B1B68184AA2FB03231B0B9B00FB60BB
:1036E8000023FB727B681B681A687B681B6822F4DE
:1036F80080321A60FB68002B0AD17B68D3F89430BB
:1037080043F040027B68C3F894200323FB7209E06E
:10371800FB68013BFB607B681B681B6803F4803314
:10372800002BE7D1FB7A18461437BD465DF8047BB9
:10373800704700BF000000201BECCB9502440346F5
:10374800934200D1704703F8011BF9E770B50D4D9E
:103758000D4C641BA4100026A64209D10B4D0C4C3D
:1037680000F018F8641BA4100026A64205D170BD0D
:1037780055F8043B98470136EEE755F8043B98475F
:103788000136F2E7CC390008CC390008CC390008FA
:10379800D0390008F8B500BFF8BC08BC9E46704791
:0C37A800F8B500BFF8BC08BC9E46704796
:1037B4000080248348866A898C8CAB8FC892E295FA
:1037C400F9980B9C1A9F23A228A526A81FAB11AE1B
:1037D400FBB0DFB3BAB68CB956BC17BFCEC17AC43E
:1037E4001CC7B4C93FCCBFCE33D19BD3F5D542D887
:1037F40082DAB3DCD7DEEBE0F1E2E8E4CFE6A6E878
:103804006DEA23ECC9ED5EEFE2F054F2B5F304F592
:1038140041F66BF784F889F97CFA5CFB29FCE3FC3C
:1038240089FD1DFE9CFE09FF61FFA6FFD8FFF5FF81
:10383400FFFFF5FFD8FFA6FF61FF09FF9CFE1DFEF9
:1038440089FDE3FC29FC5CFB7CFA89F984F86BF7BD
:1038540041F604F5B5F354F2E2F05EEFC9ED23EC62
:103864006DEAA6E8CFE6E8E4F1E2EBE0D7DEB3DC0C
:1038740082DA42D8F5D59BD333D1BFCE3FCCB4C97D
:103884001CC77AC4CEC117BF56BC8CB9BAB6DFB355
:10389400FBB011AE1FAB26A828A523A21A9F0B9C30
:1038A400F998E295C892AB8F8C8C6A8948862483F8
:1038B4000080DC7CB879967674735570386D1E6A16
:1038C4000767F563E660DD5DD85ADA57E154EF51D6
:1038D400054F214C46497446AA43E940323E863B93
:1038E400E4384C36C1334131CD2E652C0B2ABE272A
:1038F4007E254D232921151F0F1D181B31195A1719
:103904009315DD133712A2101E0FAC0D4B0CFC0ADD
:10391400BF0995087C0777068405A404D7031D0313
:103924007702E3016401F7009F005A0028000B00AE
:1039340001000B0028005A009F00F7006401E30116
:1039440077021D03D703A404840577067C07950832
:10395400BF09FC0A4B0CAC0D1E0FA2103712DD136D
:1039640093155A173119181B0F1D151F29214D23A3
:103974007E25BE270B2A652CCD2E4131C1334C3612
:10398400E438863B323EE940AA4374464649214C1A
:10399400054FEF51E154DA57D85ADD5DE660F5631F
:1039A40007671E6A386D557074739676B879DC7C37
:1039B40000000000000000000102030406070809DB
:0839C4000000000001020304F1
:0439CC00FD010008F1
:0439D000D901000811
:0C39D4000024F4001000000001000000BE
:1039E00000000000000000000000000000000000D7
:1039F00000000000000000000000000000000000C7
:103A000000000000000000000000000000000000B6
:103A100000000000000000000000000000000000A6
:103A20000000000000000000000000000000000096
:103A30000000000000000000000000000000000086
:103A40000000000000000000000000000000000076
:103A50000000000000000000000000000000000066
:103A60000000000000000000000000000000000056
:103A70000000000000000000000000000000000046
:103A80000000000000000000000000000000000036
:103A90000000000000000000000000000000000026
:103AA0000000000000000000000000000000000016
:103AB0000000000000000000000000000000000006
:103AC00000000000000000000000000000000000F6
:103AD00000000000000000000000000000000000E6
:103AE00000000000000000000000000000000000D6
:103AF00000000000000000000000000000000000C6
:103B000000000000000000000000000000000000B5
:103B100000000000000000000000000000000000A5
:103B20000000000000000000000000000000000095
:103B30000000000000000000000000000000000085
:103B40000000000000000000000000000000000075
:103B50000000000000000000000000000000000065
:103B60000000000000000000000000000000000055
:103B70000000000000000000000000000000000045
:103B80000000000000000000000000000000000035
:103B90000000000000000000000000000000000025
:103BA0000000000000000000000000000000000015
:103BB0000000000000000000000000000000000005
:103BC00000000000000000000000000000000000F5
:103BD00000000000000000000000000000000000E5
:04000005080008DD0A
:00000001FF
